{
  "_format": "hh-sol-artifact-1",
  "contractName": "Counter",
  "sourceName": "contracts/Counter.sol",
  "abi": [
    {
      "anonymous": false,
      "inputs": [
        {
          "indexed": false,
          "internalType": "uint32",
          "name": "counter",
          "type": "uint32"
        }
      ],
      "name": "counterIncreament",
      "type": "event"
    },
    {
      "inputs": [],
      "name": "count",
      "outputs": [],
      "stateMutability": "nonpayable",
      "type": "function"
    },
    {
      "inputs": [],
      "name": "getCounter",
      "outputs": [
        {
          "internalType": "uint32",
          "name": "",
          "type": "uint32"
        }
      ],
      "stateMutability": "view",
      "type": "function"
    },
    {
      "inputs": [],
      "name": "hello",
      "outputs": [
        {
          "internalType": "string",
          "name": "",
          "type": "string"
        }
      ],
      "stateMutability": "pure",
      "type": "function"
    }
  ],
  "bytecode": "0x608060405234801561001057600080fd5b5061044b806100206000396000f3fe608060405234801561001057600080fd5b50600436106100415760003560e01c806306661abd1461004657806319ff1d21146100505780638ada066e1461006e575b600080fd5b61004e61008c565b005b61005861016a565b6040516100659190610315565b60405180910390f35b6100766101a7565b6040516100839190610356565b60405180910390f35b60008081819054906101000a900463ffffffff16809291906100ad906103a0565b91906101000a81548163ffffffff021916908363ffffffff160217905550506101216040518060400160405280600881526020017f636f756e7465723a00000000000000000000000000000000000000000000000081525060008054906101000a900463ffffffff1663ffffffff166101c0565b7f17199ab9c8bde1339e6cb018e398c068bc627822a27c8e73e614371740eb750b60008054906101000a900463ffffffff166040516101609190610356565b60405180910390a1565b60606040518060400160405280600581526020017f48656c6c6f000000000000000000000000000000000000000000000000000000815250905090565b60008060009054906101000a900463ffffffff16905090565b61025882826040516024016101d69291906103e5565b6040516020818303038152906040527fb60e72cc000000000000000000000000000000000000000000000000000000007bffffffffffffffffffffffffffffffffffffffffffffffffffffffff19166020820180517bffffffffffffffffffffffffffffffffffffffffffffffffffffffff838183161783525050505061025c565b5050565b60008151905060006a636f6e736f6c652e6c6f679050602083016000808483855afa5050505050565b600081519050919050565b600082825260208201905092915050565b60005b838110156102bf5780820151818401526020810190506102a4565b60008484015250505050565b6000601f19601f8301169050919050565b60006102e782610285565b6102f18185610290565b93506103018185602086016102a1565b61030a816102cb565b840191505092915050565b6000602082019050818103600083015261032f81846102dc565b905092915050565b600063ffffffff82169050919050565b61035081610337565b82525050565b600060208201905061036b6000830184610347565b92915050565b7f4e487b7100000000000000000000000000000000000000000000000000000000600052601160045260246000fd5b60006103ab82610337565b915063ffffffff82036103c1576103c0610371565b5b600182019050919050565b6000819050919050565b6103df816103cc565b82525050565b600060408201905081810360008301526103ff81856102dc565b905061040e60208301846103d6565b939250505056fea264697066735822122044b0cc6849d9de8751ea9001bfc5ebc589e3c77cc7904f52bb944f06a8575c2a64736f6c63430008110033",
  "linkReferences": {},
  "deployedLinkReferences": {}
}